:100000000C9434000C9451000C9451000C94510049
:100010000C9451000C9451000C9451000C9451001C
:100020000C9451000C9451000C9451000C9451000C
:100030000C9451000C9451000C9451000C945100FC
:100040000C9471000C9451000C9451000C945100CC
:100050000C9451000C9451000C9451000C945100DC
:100060000C9451000C94510011241FBECFEFD8E026
:10007000DEBFCDBF11E0A0E0B1E0ECEBF1E002C0EB
:1000800005900D92AE30B107D9F721E0AEE0B1E0B6
:1000900001C01D92AF30B207E1F70E94B2000C948C
:1000A000DC000C940000E0E0F1E02AE030E0B9016F
:1000B0000E94C800DC01AC5FBE4F8C918193CB01E4
:1000C00041E0E430F40799F7089598E080FF07C015
:1000D000289A86955F9A5F989A95C1F7089528980F
:1000E000F8CF1F920F920FB60F9211242F933F93C8
:1000F0004F935F936F937F938F939F93AF93BF9330
:10010000CF93DF93EF93FF93C0910E01D0E0FE01F8
:10011000E050FF4F80810E946500249681E001C07D
:10012000880FCA95EAF70E9465005C9A5C988091F6
:100130000E018F5F843008F080E080930E01FF9104
:10014000EF91DF91CF91BF91AF919F918F917F916F
:100150006F915F914F913F912F910F900FBE0F9034
:100160001F90189580E090E00E94530081E084B9D0
:1001700090E99AB994E095BD80936E00789484EAF2
:1001800091E0349B02C088EB92E20E945300F7CFCB
:10019000AA1BBB1B51E107C0AA1FBB1FA617B707AD
:1001A00010F0A61BB70B881F991F5A95A9F78095C9
:0C01B0009095BC01CD010895F894FFCF9C
:0E01BC0003030303039F250D9949411F010909
:00000001FF
